S015000052656D6F7465436F6E74726F6C2E73726563C2
S113000012C121C120C11FC11EC11DC11CC11BC100
S11300101AC119C118C149C116C115C114C113C1EE
S113002012C111C110C10000000000000000000056
S113003000000000000000000000000000000000BC
S113004000000000000000000000000000000000AC
S1130050000000000000000000000000000000009C
S1130060000000000000000000000000000000008C
S1130070000000000000000000000000000000007C
S1130080000000000000000000000000000000006C
S1130090000000000000000000000000000000005C
S11300A0000000000000000000000000000000004C
S11300B0000000000000000000000000000000003C
S11300C0000000000000000000000000000000002C
S11300D0000000000000000000000000000000001C
S11300E0000000000000000000000000000000000C
S11300F000000000000000000000000000000000FC
S113010000000000000000000000000000000000EB
S113011000000000000000000000000000000000DB
S113012000000000000000000000000000000000CB
S113013000000000000000000000000000000000BB
S113014000000000000000000000000000000000AB
S11301500000000000000000000024010000000076
S1130160000000000000000000000000000000008B
S1130170000000000000000000000000000000007B
S113018000000000000025012601270128012901A3
S11301902A012B012C012D012E012F0130013101E7
S11301A03201330134013501360137013801390197
S11301B03A013B013C013D013E013F014001410147
S11301C042014301440145014601470148014901F7
S11301D04A014B0100000000000000000000000084
S11301E0000000000000000000000000000000000B
S11301F000000000000000000000000000000000FB
S113020000000000000000000000000000000000EA
S113021000000000000000000000000000000000DA
S113022000000000000011241FBECFE5D4E0DEBFB3
S1130230CDBF20E0A0E6B0E001C01D92A238B20715
S1130240E1F795D0FFC0DCCE089508950895089590
S113025008950895089508950895089508950895B2
S113026008950895089508950895089508950895A2
S11302700895089508950895089508950895089592
S11302800895089508950895089508950895089582
S1130290089508950895089510BC80E189B9599A84
S11302A088E98AB986E880BD08951F920F920FB637
S11302B00F9211242F933F934F935F936F937F93E8
S11302C08F939F93AF93BF93EF93FF93CF93DF935A
S11302D000D000D0CDB7DEB780916100813061F0ED
S11302E018F0823081F02AC09CB181E0993809F07D
S11302F080E08093610024C08CB18093600082E030
S1130300809361001DC0E0916000F0E08CB19F011A
S113031027573F4F90E02817390769F41A8219824A
S1130320EE0FFF1FEA5DFF4F859194919C838B83B1
S1130330CE01019631D01092610002C0109261008A
S11303400F900F900F900F90DF91CF91FF91EF914D
S1130350BF91AF919F918F917F916F915F914F91D9
S11303603F912F910F900FBE0F901F901895CF9330
S1130370DF9300D000D0CDB7DEB78EDF8E9ABA9A65
S1130380969AC2987894CE01019636D08823D9F3F0
S1130390EB81FC810995F7CFCF93DF932091640023
S11303A030916500232B51F0E8E6F0E021E030E0E5
S11303B0B90140815181452BA9F402C060E070E08D
S11303C0660F771F660F771FFB01EE59FF4FEC0195
S11303D088819981AA81BB8180839183A283B3831D
S11303E081E007C02F5F3F4F34962830310501F775
S11303F080E0DF91CF9108952091640030916500F1
S1130400232BF1F0409162005091630060916400ED
S113041070916500FC014083518362837383E2E63B
S1130420F0E02EE730E084819581A681B781819345
S11304309193A193B193E217F307A9F781E008958B
S10B044080E00895F894FFCF59
S9030000FC
