S015000052656D6F7465436F6E74726F6C2E73726563C2
S113000043C05DC05CC05BC05AC059C058C057C033
S11300102BC155C054C040C152C051C050C04FC084
S11300204EC04DC04CC000000000000000000000A5
S11300300000000000000000610000006000650096
S11300406C000000000000020406080A0C0E1012E6
S11300501416181A1C1E310032003000043100320C
S1130060003000083100320030001031003200301E
S11300700020310032003000403100320030008076
S1130080370038003600010011241FBECFE5D4E04C
S1130090DEBFCDBF10E0A0E6B0E0E8E0F4E002C0CF
S11300A005900D92A236B107D9F720E0A2E6B0E0A0
S11300B001C01D92A637B207E1F75BD1A3C1A0CF5F
S11300C008958A3009F45BD00895E82FF0E0EA5BE4
S11300D0FF4F8491B9D0089531D00895E82FF0E00E
S11300E0EE0FFF1FEA5DFF4F859194910895EF9203
S11300F0FF920F931F93CF93DF93C6E5D0E00F2EAB
S1130100F7E8EF2EF0E0FF2EF02D8E01C80168D045
S113011061E043D0095F1F4F0E151F05B9F7CE01EB
S11301205FD060E04BD02796CE15DF05C1F7DF9195
S1130130CF911F910F91FF90EF900895CF93C82F07
S113014080916200813059F48091630027E0829F9E
S1130150C00111248A5A9F4F43D060E02FD027E07A
S1130160C29FC00111248A5A9F4F3AD061E026D021
S1130170C093630081E080936200CF9108958091E1
S1130180630027E0829FC00111248A5A9F4F28D020
S113019060E014D0109262000895DC01ED91FC91AE
S11301A0119716968C91611105C0908180958923D1
S11301B0808308959081892B80830895DC011296B1
S11301C0ED91FC91139716968C91611105C0908165
S11301D080958923808308959081892B8083089555
S11301E047E050E0BC0184E690E003D184E690E06F
S11301F00895BA9A8FB581608FBD8FB582608FBD27
S11302008EB588608EBD8EB580618EBD8FB58F7BB7
S11302108FBD8FB58F778FBD8FB58F7E8FBD8FB517
S113022080628FBD80E49FE19BBD8ABD99BD88BD7E
S11302308EB5887F8EBD1DBC1CBC8EB581608EBD05
S113024089B7846089BF089520E43FE1482F429F25
S1130250C001439F900D112464E670E0A3D0261BD7
S1130260370B39BD28BD08951F920F920FB60F9218
S113027011248F9381E0809375008F910F900FBEAE
S11302800F901F90189510BC80E189B9599A88E99C
S11302908AB986E880BD08951F920F920FB60F9217
S11302A011242F938F939F93EF93FF938CB1E0913D
S11302B06000F09161000994893851F585E691E078
S11302C0909361008093600023C080936B008EE65E
S11302D091E090936100809360001AC090916B004C
S11302E029E8290F28130EC080916C00873051F043
S11302F0E0916C0081E08E0F80936C00F0E0E35994
S1130300FF4F90838CE591E09093610080936000AF
S1130310FF91EF919F918F912F910F900FBE0F90AE
S11303201F90189580916D0090916C00992381F035
S113033090E0292F30E0F901E259FF4F4081F901A3
S1130340E359FF4F40839F5F20916C00921788F31D
S1130350E0916C009FEF9E0F90936C00F0E0E359E6
S1130360FF4F1082089590916C0081E0911180E01C
S1130370089589DFBCDE3DDF789480917500882381
S1130380E1F310927500EFDF8111F7CFCBDFC82FB7
S113039082958F70A3DEFC01892B79F38C2F8F70EB
S11303A00995EBCF97FB072E16F4009406D077FD42
S11303B008D00BD007FC05D03EF4909581959F4F53
S11303C00895709561957F4F0895AA1BBB1B51E159
S11303D007C0AA1FBB1FA617B70710F0A61BB70BB1
S11303E0881F991F5A95A9F780959095BC01CD0156
S11303F00895FB01DC0102C005900D92415050406C
S10B0400D8F70895F894FFCF2A
S10504085C0191
S9030000FC
