S015000052656D6F7465436F6E74726F6C2E73726563C2
S113000038C047C046C045C044C043C042C041C0D8
S113001040C03FC03EC0E6C03CC03BC03AC039C04F
S113002038C037C036C069C06AC06BC06CC06DC010
S11300306EC06FC077C079C07BC07DC07FC081C0F7
S113004083C0000000000000000000000000000069
S1130050000000004B0000004A004C005200000069
S1130060000000020406080A0C0E10121416181AD6
S11300701C1E11241FBECFE5D4E0DEBFCDBF20E09F
S1130080A0E6B0E001C01D92AB38B207E1F706D19B
S113009078C1B6CF089511C0E82FF0E0EE59FF4FB4
S11300A084915EC061E019C0E82FF0E0EE0FFF1FFD
S11300B0EE5BFF4F85919491089592988A9A939854
S11300C08B9A94988C9A95988D9A96988E9A9798DC
S11300D08F9AC098B89A0895F0CFCF93DF93C82F22
S11300E0D62FEBDF8C2F90E0D130A9F48730910527
S11300F068F5FC01ED5EFF4F0994929A14C0939A3F
S113010015C0949A16C0959A17C0969A18C0979AD3
S113011019C0C09A1AC087309105C0F4FC01E65E8C
S1130120FF4F099492988A9A11C093988B9A0EC0A3
S113013094988C9A0BC095988D9A08C096988E9A2C
S113014005C097988F9A02C0C098B89ADF91CF9152
S11301500895BA9A14D084E634D084E636D028C000
S11301602AB53BB5482F429FC001439F900D1124EF
S113017024E6622F70E0F1D0822F861B26C08FB553
S113018081608FBD8FB582608FBD8EB588608EBD56
S11301908EB580618EBD8FB58F7B8FBD8FB58F7708
S11301A08FBD8FB58F7E8FBD8FB580628FBD089553
S11301B08EB5887F8EBD1DBC1CBC8EB581608EBD86
S11301C0089590E09BBD8ABD089590E099BD88BDD7
S11301D0089510BC80E189B9599A88E98AB986E8FA
S11301E080BD08951F920F920FB60F9211242F9382
S11301F03F934F935F936F937F938F939F93AF93AB
S1130200BF93EF93FF93CF93DF93CDB7DEB72597DB
S1130210DEBFCDBF9CB180916100813041F018F008
S1130220823059F021C0993809F581E003C09093D8
S1130230600082E08093610019C08091600029E829
S1130240280F921311C01A82198282958F702CDFA5
S11302509C838B83809160008F708D83CE01019687
S11302603AD081E080936200109261000F900F9069
S11302700F900F900F90DF91CF91FF91EF91BF916D
S1130280AF919F918F917F916F915F914F913F912A
S11302902F910F900FBE0F901F901895CF93DF935F
S11302A000D000D01F92CDB7DEB793DF15DF51DF4A
S11302B07894809162008823E1F310926200CE0169
S11302C001962AD08823A9F3EB81FC81309789F326
S11302D08D810995EECFFC01A3E6B0E020E030E08B
S11302E012968D919C911397892B71F495E0929FAE
S11302F0D001939FB00D1124AD59BF4F01900D92C1
S11303009A95E1F781E008952F5F3F4F15962830C5
S1130310310531F780E00895DC018091650090910A
S11303206600892BC1F095E0E3E6F0E001900D92C0
S11303309A95E1F783E690E025E0FC013596DC012F
S113034001900D922A95E1F7059620E086389207F0
S113035099F781E0089580E00895AA1BBB1B51E141
S113036007C0AA1FBB1FA617B70710F0A61BB70B21
S1130370881F991F5A95A9F780959095BC01CD01C6
S10903800895F894FFCF7C
S9030000FC
