:1000000058C072C071C08FC16FC06EC06DC06CC06F
:100010006BC06AC069C0F3C167C066C065C064C018
:1000200063C062C061C0000000000000000000006A
:1000300000000000000000007600000075007C0059
:100040007B000000000000020406080A0C0E1012DB
:100050001416181A1C1E34003500330020340035E5
:10006000003300103400350033000834003500330D
:100070000004340035003300023400350033000141
:10008000310032003000043100320030000831000D
:1000900032003000103100320030002031003200D8
:1000A0003000403100320030008037003800360028
:1000B000010011241FBECFE5D4E0DEBFCDBF10E0AC
:1000C000A0E6B0E0E2E4F5E002C005900D92AC36A7
:1000D000B107D9F720E0ACE6B0E001C01D92A1392C
:1000E000B207E1F7EED12BC28BCF08958A3011F41D
:1000F00087E094C0089592C0E82FF0E0EA5BFF4FDC
:1001000084910EC2E82FF0E0EE0FFF1FEA5DFF4F73
:100110008591949108950F931F93CF93DF9380B7A8
:100120008B7F80BFC6E5D0E0CE01CDD08C0160E0F2
:100130009DD061E0C801A9D0279680E0C038D807DB
:1001400099F7DF91CF911F910F91089527E0829F3A
:10015000C00111248A5A9F4FB6D0A7C0CF93DF9316
:10016000EB01F4DF382F89819A81E881F0E0EE0F0E
:10017000FF1FED59FF4F0190F081E02D099421E020
:10018000311120E0213079F017C0313091F08F31FA
:10019000910560F408C0313049F40DC0332331F0CB
:1001A0004F9748F006C0019621E008C0019622E072
:1001B00005C020E001C023E080E090E028839A831E
:1001C0008983DF91CF9108950F931F93CF930CE60E
:1001D00010E0C0E0B8018C2FC1DFCF5F0D5F1F4F73
:1001E000C630C1F7CF911F910F9108950F931F93C0
:1001F000CF93DF93C0E8D0E0CE0165D08C0161E001
:1002000035D060E0C80141D0279680E0C13BD807D7
:1002100099F7DF91CF911F910F910895CF9390910E
:100220006000981709F1C82F80917E00813059F441
:1002300010927E0027E0929FC001112480589F4FAA
:1002400042D060E022D0C0936000C73069F031E056
:1002500030937E0047E0C49FC001112480589F4F17
:1002600032D061E0CF9111C0CF910895DC01ED91C2
:10027000FC91119716968C919081611103C0809525
:10028000892301C0892B80830895DC011296ED91AA
:10029000FC91139716968C919081611103C0809503
:1002A000892301C0892B80830895DC011496ED9188
:1002B000FC911597208116968C91922F982381E0BE
:1002C00009F480E0089547E050E0BC018FE790E03A
:1002D0002DD18FE790E0089595B580FF02C090641E
:1002E00001C09F7B95BD81FF03C085B5886002C0BA
:1002F00085B5877F85BD089595B5987F95BD14BC5C
:1003000025B5822B85BD089599B79F7399BF29B7ED
:10031000822B89BF089582E0DFDF80E8F5DF8AEF76
:1003200083BD83E0E9CF1F920F920FB60F92112485
:100330008F9381E0809390008F910F900FBE0F906C
:100340001F9018959FB580FF02C0916001C09E7FED
:100350009FBD2FB581FF02C0226001C02D7F2FBD40
:100360003EB582FF02C0386001C0377F3EBD83FFCB
:1003700003C08EB5806102C08EB58F7E8EBD08959C
:10038000882319F0813079F008953FB560FF02C0ED
:10039000306401C03F7B3FBD2FB561FF02C02068C4
:1003A0000FC02F770DC08FB560FF02C0806101C004
:1003B0008F7E8FBD2FB561FF02C0206201C02F7DEF
:1003C0002FBD0895882319F0813021F008957BBD59
:1003D0006ABD089579BD68BD08959EB5987F9EBD9C
:1003E0001DBC1CBC2EB5822B8EBD089510BC80E1B7
:1003F00089B9599A28E92AB936E830BD08951F927B
:100400000F920FB60F9211242F938F939F93EF9318
:10041000FF938CB1E0916100F091620009948938FA
:1004200011F5E4E1F2E01BC080938600E9E1F2E01F
:1004300016C09091860029E8290F82130EC0809182
:100440008700873051F0E091870021E02E0F209344
:100450008700F0E0E857FF4F9083EFE0F2E0F09381
:100460006200E0936100FF91EF919F918F912F9136
:100470000F900FBE0F901F9018958091880050E04C
:1004800020918700521760F4252F30E0F901E757DB
:10049000FF4F4081F901E857FF4F40835F5FF0CF86
:1004A000E09187009FEF9E0F90938700F0E0E85760
:1004B000FF4F108208959091870081E0911180E0B4
:1004C000089594DF93DE19D026DF25DE789480919D
:1004D00090008823E1F310929000EDDF81110BC0B2
:1004E000CCDFC82F82958F700DDEFC01892B19F0AF
:1004F0008C2F8F70099568DEEACFBA9A8FE022DFE1
:1005000064E670E080E05EDF64E670E081E05ADF80
:1005100060E081E035DF62E081E032DF81E05DCFE5
:1005200064E670E0681B710981E04CCFFB01DC01DF
:1005300002C005900D9241505040D8F70895F894AC
:02054000FFCFEB
:0C054200070F02BF00C500CB00CE000078
:00000001FF
