S015000052656D6F7465436F6E74726F6C2E73726563C2
S113000058C072C071C028C26FC06EC06DC06CC0D1
S11300106BC06AC069C08CC267C066C065C064C07A
S113002063C062C061C00000000000000000000066
S113003000000000000000007600000075007C0055
S11300407B000000000000020406080A0C0E1012D7
S11300501416181A1C1E34003500330020340035E1
S11300600033001034003500330008340035003309
S1130070000434003500330002340035003300013D
S11300803100320030000431003200300008310009
S113009032003000103100320030002031003200D4
S11300A03000403100320030008037003800360024
S11300B0010011241FBECFE5D4E0DEBFCDBF10E0A8
S11300C0A0E6B0E0E4E7F6E002C005900D92A037A8
S11300D0B107D9F720E0A0E7B0E001C01D92A7392D
S11300E0B207E1F787D2C4C28BCF08958A3011F4E6
S11300F087E02DC108952BC1E82FF0E0EA5BFF4FA4
S11301008491A7C2E82FF0E0EE0FFF1FEA5DFF4FD6
S11301108591949108950F931F93CF93DF9380B7A4
S11301208B7F80BFC6E5D0E0CE0166D18C0160E054
S113013036D161E0C80142D1279680E0C038D807A3
S113014099F7DF91CF911F910F91089527E0829F36
S1130150C00111248A5A9F4F4FD140C10F931F935E
S1130160CF93C82F8B01F2DFF80190812181328176
S1130170E92FF0E0EE0FFF1FEB59FF4F0190F081E4
S1130180E02D09948111B1C080E293E09093610065
S11301908093600091E0A9C0813019F4109271003D
S11301A0A3C0409171004F5F40937100453608F43D
S11301B09CC020E030E092E098C0813021F410929D
S11301C0710052E00EC02F5F3F4F2132F3E03F0732
S11301D008F48BC093E089C0813039F41092710027
S11301E053E05093700094E080C02F5F3F4F6091C4
S11301F06000709161006217730708F076C0C23026
S113020021F168F4CC23C9F0C13009F068C028EEAC
S113021033E0309361002093600039EA2DC0C4308C
S113022021F1D8F0C53009F05AC0E4EFF1E0F093C1
S11302306100E093600036EA1FC0AFEFBFEFB093F8
S11302406100A09360003CEA17C02FEF3FEF3093AA
S11302506100209360003BEA0FC048EE53E05093E6
S11302606100409360003AEA07C064EF71E0709364
S113027061006093600035EA3CB931C0811105C06A
S1130280109271009091700030C0709171007F5F86
S113029070937100753648F1909170009230C1F4FA
S11302A0C23081F030F4CC2359F0C130D9F4B1EA32
S11302B014C0C43059F040F0C530A1F4B6EA0DC002
S11302C0B4EA0BC0B3EA09C0B2EA07C0B5EA05C094
S11302D0C13011F0C33031F4B0EABCB903C020E03E
S11302E030E003C020E030E090E0F80190833283F6
S11302F02183CF911F910F9108950F931F93CF9353
S113030002E710E0C0E0B8018C2F28DFCF5F0D5F5B
S11303101F4FC630C1F7CF911F910F9108950F93CE
S11303201F93CF93DF93C0E8D0E0CE0165D08C015A
S113033061E035D060E0C80141D0279680E0C13B40
S1130340D80799F7DF91CF911F910F910895CF931B
S113035090916200981709F1C82F80918400813030
S113036059F41092840027E0929FC0011124805810
S11303709F4F42D060E022D0C0936200C73069F042
S113038031E03093840047E0C49FC00111248058B9
S11303909F4F32D061E0CF9111C0CF910895DC011D
S11303A0ED91FC91119716968C919081611103C087
S11303B08095892301C0892B80830895DC011296DE
S11303C0ED91FC91139716968C919081611103C065
S11303D08095892301C0892B80830895DC011496BC
S11303E0ED91FC911597208116968C91922F98236C
S11303F081E009F480E0089547E050E0BC0185E81D
S113040090E02DD185E890E0089595B580FF02C075
S1130410906401C09F7B95BD81FF03C085B5886052
S113042002C085B5877F85BD089595B5987F95BD34
S113043014BC25B5822B85BD089599B79F7399BFC8
S113044029B7822B89BF089582E0DFDF80E8F5DFDA
S11304508AEF83BD83E0E9CF1F920F920FB60F920C
S113046011248F9381E0809396008F910F900FBE9B
S11304700F901F9018959FB580FF02C0916001C036
S11304809E7F9FBD2FB581FF02C0226001C02D7FDA
S11304902FBD3EB582FF02C0386001C0377F3EBD2C
S11304A083FF03C08EB5806102C08EB58F7E8EBD82
S11304B00895882319F0813079F008953FB560FFDD
S11304C002C0306401C03F7B3FBD2FB561FF02C055
S11304D020680FC02F770DC08FB560FF02C0806108
S11304E001C08F7E8FBD2FB561FF02C0206201C0A5
S11304F02F7D2FBD0895882319F0813021F00895B0
S11305007BBD6ABD089579BD68BD08959EB5987F89
S11305109EBD1DBC1CBC2EB5822B8EBD089510BC87
S113052080E189B9599A28E92AB936E830BD089595
S11305301F920F920FB60F9211242F938F939F93B4
S1130540EF93FF938CB1E0916300F0916400099400
S1130550893811F5EDEAF2E01BC080938C00E2EBE0
S1130560F2E016C090918C0029E8290F82130EC086
S113057080918D00873051F0E0918D0021E02E0FA5
S113058020938D00F0E0E257FF4F9083E8EAF2E019
S1130590F0936400E0936300FF91EF919F918F913A
S11305A02F910F900FBE0F901F90189580918E0081
S11305B050E020918D00521760F4252F30E0F901AE
S11305C0E157FF4F4081F901E257FF4F40835F5FDE
S11305D0F0CFE0918D009FEF9E0F90938D00F0E09F
S11305E0E257FF4F1082089590918D0081E09111A0
S11305F080E0089594DF93DE19D026DF8CDD7894B3
S1130600809196008823E1F310929600EDDF81112A
S11306100BC0CCDFC82F82958F7074DDFC01892B51
S113062019F08C2F8F70099568DEEACFBA9A8FE0A3
S113063022DF64E670E080E05EDF64E670E081E083
S11306405ADF60E081E035DF62E081E032DF81E0A3
S11306505DCF64E670E0681B710981E04CCFFB015B
S1130660DC0102C005900D9241505040D8F7089526
S1070670F894FFCF28
S1130674200307A802C200CC00DD00EC003E010008
S9030000FC
