:1000000058C072C071C074C16FC06EC06DC06CC08A
:100010006BC06AC069C0D8C167C066C065C064C033
:1000200063C062C061C0000000000000000000006A
:1000300000000000000000007600000075007C0059
:100040007B000000000000020406080A0C0E1012DB
:100050001416181A1C1E34003500330020340035E5
:10006000003300103400350033000834003500330D
:100070000004340035003300023400350033000141
:10008000310032003000043100320030000831000D
:1000900032003000103100320030002031003200D8
:1000A0003000403100320030008037003800360028
:1000B000010011241FBECFE5D4E0DEBFCDBF10E0AC
:1000C000A0E6B0E0EAE0F5E002C005900D92AC36A3
:1000D000B107D9F720E0ACE6B0E001C01D92AC3822
:1000E000B207E1F7D3D10FC28BCF08958A3011F454
:1000F00087E079C0089577C0E82FF0E0EA5BFF4F12
:100100008491F2C1E82FF0E0EE0FFF1FEA5DFF4F90
:1001100085919491089527E0829FC00111248A5A05
:100120009F4FB6D0A7C0CF93DF93EB01F4DF2881B8
:100130009981E22FF0E0EE0FFF1FED59FF4F019084
:10014000F081E02D09948130F9F421E01DC09F5F1A
:100150009A30C9F0811118C090E010C0811106C01A
:1001600081EA80936C0090E023E00EC09F5F0CC09A
:100170009F5F9A3029F420916C002CB920E004C0D4
:10018000813011F490E022E028839983DF91CF91B0
:1001900008950F931F93CF930DE610E0C0E0B801D0
:1001A0008C2FC1DFCF5F0E5F1F4FC630C1F7CF91DD
:1001B0001F910F9108950F931F93CF93DF93C0E882
:1001C000D0E0CE0165D08C0161E035D060E0C8019F
:1001D00041D0279680E0C13BD80799F7DF91CF91B6
:1001E0001F910F910895CF9390916000891709F1A5
:1001F000C82F80917900813059F41092790027E05E
:10020000929FC001112480589F4F42D060E022D0BD
:10021000C0936000C73069F031E03093790047E067
:10022000C49FC001112480589F4F32D061E0CF910C
:1002300011C0CF910895DC01ED91FC9111971696B4
:100240008C919081611103C08095892301C0892B15
:1002500080830895DC011296ED91FC911397169618
:100260008C919081611103C08095892301C0892BF5
:1002700080830895DC011496ED91FC9115972081FF
:1002800016968C91922F982381E009F480E00895CE
:1002900047E050E0BC018AE790E02CD18AE790E08B
:1002A000089595B580FF02C0906401C09F7B95BD05
:1002B00081FF03C085B5886002C085B5877F85BD95
:1002C000089595B5987F95BD14BC25B5822B85BD45
:1002D000089599B79F7399BF29B7822B89BF089555
:1002E00082E0DFDF80E8F5DF8AEF83BD83E0E9CFDE
:1002F0001F920F920FB60F9211248F9381E080937B
:100300008B008F910F900FBE0F901F9018959FB587
:1003100080FF02C0916001C09E7F9FBD2FB581FF0D
:1003200002C0226001C02D7F2FBD3EB582FF02C0FA
:10033000386001C0377F3EBD83FF03C08EB580614A
:1003400002C08EB58F7E8EBD0895882319F081304E
:1003500079F008953FB560FF02C0306401C03F7B73
:100360003FBD2FB561FF02C020680FC02F770DC0C1
:100370008FB560FF02C0806101C08F7E8FBD2FB539
:1003800061FF02C0206201C02F7D2FBD0895882328
:1003900019F0813021F008957BBD6ABD089579BDC3
:1003A00068BD08959EB5987F9EBD1DBC1CBC2EB532
:1003B000822B8EBD089510BC80E189B9599A28E935
:1003C0002AB936E830BD08951F920F920FB60F92EA
:1003D00011242F938F939F93EF93FF938CB1E09110
:1003E0006100F09162000994893811F5E9EFF1E0BC
:1003F0001BC080938100EEEFF1E016C09091810068
:1004000029E8290F28130EC080918200873051F00F
:10041000E091820021E02E0F20938200F0E0ED5762
:10042000FF4F9083E4EFF1E0F0936200E09361000E
:10043000FF91EF919F918F912F910F900FBE0F9091
:100440001F9018958091830050E0209182005217F0
:1004500060F4252F30E0F901EC57FF4F4081F9019E
:10046000ED57FF4F40835F5FF0CFE09182009FEF39
:100470009E0F90938200F0E0ED57FF4F1082089599
:100480009091820081E0911180E0089594DF93DEE5
:1004900018D026DF789480918B008823E1F31092A6
:1004A0008B00EEDF81110BC0CDDFC82F82958F70DE
:1004B00029DEFC01892B19F08C2F8F70099569DEDC
:1004C000EACFBA9A8FE023DF64E670E080E05FDF76
:1004D00064E670E081E05BDF60E081E036DF62E0EF
:1004E00081E033DF81E05ECF64E670E0681B710974
:1004F00081E04DCFFB01DC0102C005900D9241501F
:0A0500005040D8F70895F894FFCF9B
:0C050A0007F401A300A700AE00B8000039
:00000001FF
